:100000000C945D010C948E010C948E010C948E0165
:100010000C948E010C948E010C948E010C948E0124
:100020000C948E010C948E010C948E010C948E0114
:100030000C948E010C948E010C948E010C948E0104
:100040000C948E010C948E010C948E010C948E01F4
:100050000C948E010C948E010C948E010C944F061E
:100060000C948E010C948E010C948E010C948E01D4
:100070000C948E010C948E010C948E010C948E01C4
:100080000C948E010C948E010C948E010C948E01B4
:100090000C948E010C948E010C948E010C94990694
:1000A0000C948E010C948E010C948E010C948E0194
:1000B0000C948E010C948E010C948E010C948E0184
:1000C0000C948E010C948E010C948E010C948E0174
:1000D0000C948E010C948E010C948E010C948E0164
:1000E0000C948E010C94C5020C9444040C942003CF
:1000F0000C94D3010C9443040C94D9020C94AF03D8
:100100000C947E040C94AE010C94E5010C9448030D
:100110000C943E030C9494050C94C3010C94EE01D2
:100120000C9447040C9407030C94DC030C94FD021C
:100130000C94F3020C94F3010C94CD010C94B401D3
:100140000C94C0010C944A040C94DB010C94CF0273
:100150000C94EF010C9452030C9451040C94C901BB
:100160000C94D7010C94EB020C94B8010C9411037D
:100170000C94E9010C9411060C94C0020C94E1015A
:100180000C942A030C9434030C94BC010C94FE07C9
:100190000C94B9020C94E302000021002400270013
:1001A0002A002D0030003300010100000401070186
:1001B0000A0100002200250028002B002E0031003B
:1001C000340002010000050108010B0100002000BD
:1001D0002300260029002C002F003200000100001F
:1001E00003010601090105050505070508080808BA
:1001F000020202020A0A08080404040401010101BF
:1002000001010101030303030303030304070707B9
:100210000C0C0C0C0C0C0C0C02020202060606065E
:10022000060606060B0B0B0B0B0B0B0B010210202B
:10023000200808102040102040800201020108041C
:1002400002010102040810204080804020100804B0
:100250000201800402018040201008040201080409
:10026000020101020408102040800102040810204D
:10027000408000000A0B02090C0D0E080703040160
:10028000000000000000000000000000000000006E
:10029000000000000000000000000000000012113B
:1002A000100000000000000000000000000000003E
:1002B0000000000000000000FE0711241FBECFEF69
:1002C000D1E2DEBFCDBF00E00CBF12E0A0E0B2E0A3
:1002D000EEE5F9E100E00BBF02C007900D92AA3BEA
:1002E000B107D9F723E0AAEBB2E001C01D92A03715
:1002F000B207E1F711E0CDE5D1E000E006C02197BB
:100300000109802FFE010E94A50CCC35D10780E0A9
:100310000807A9F70E941E080C94AD0C0C9400006D
:100320008150823108F05AC0E82FF0E08827E45667
:10033000FE4F8F4F0C94A50CBC01C001AE01B4015F
:10034000B801EE01C301C901CD01D301D701DB0121
:10035000E101E501EE01E901EF01F3018091800087
:100360008F77809380000895809180008F7DF9CFF2
:1003700080918000877FF5CF84B58F7784BD089505
:1003800084B58F7DFBCF8091B0008F778093B000D4
:1003900008958091B0008F7DF9CF809190008F7784
:1003A000809390000895809190008F7DF9CF809187
:1003B0009000877FF5CF8091A0008F778093A00079
:1003C00008958091A0008F7DF9CF8091A000877F54
:1003D000F5CF809120018F7780932001089580913F
:1003E00020018F7DF9CF80912001877FF5CFCF93BA
:1003F000DF93282F30E0F901EE58FD4F8491F90189
:10040000E45DFD4FD491F901EA51FE4FC491CC2334
:10041000A1F081110E949001EC2FF0E0EE0FFF1F80
:10042000E453FE4FA591B491EC91ED2381E090E06F
:1004300009F480E0DF91CF91089580E090E0FACF59
:100440001F93CF93DF93282F30E0F901EE58FD4F33
:100450008491F901E45DFD4FD491F901EA51FE4F19
:10046000C491CC23A9F0162F81110E949001EC2F8A
:10047000F0E0EE0FFF1FEE54FE4FA591B4918FB741
:10048000F894EC91111108C0D095DE23DC938FBF56
:10049000DF91CF911F910895DE2BF8CFCF93DF939B
:1004A00090E0FC01E45DFD4F24918A519E4FFC01D8
:1004B00084918823C9F090E0880F991FFC01E856C9
:1004C000FE4FA591B491FC01EE54FE4FC591D4911D
:1004D00061110DC09FB7F8948C91209582238C9365
:1004E0008881282328839FBFDF91CF9108956230B0
:1004F00051F49FB7F8943C91822F809583238C937D
:10050000E8812E2BEFCF8FB7F894EC912E2B2C9304
:100510008FBFEACFCF93DF93EC0161E08BE00E94C5
:100520004E02209731F460E08BE0DF91CF910C9484
:100530002002EDE7F2E0E491E150E23108F0B2C0D0
:10054000F0E08827E955FD4F8F4F0C94A50CB902B8
:10055000C002C502CF02D9025203E302EB02F3024A
:10056000FD020703110320032A03520334033E0351
:10057000480384B5806884BDC7BDDF91CF910895DD
:1005800084B5806284BDC8BDF8CF8091800080684A
:1005900080938000D0938900C0938800EECF809133
:1005A0008000806280938000D0938B00C0938A008B
:1005B000E4CF80918000886080938000D0938D008C
:1005C000C0938C00DACF8091B00080688093B00037
:1005D000C093B300D2CF8091B00080628093B0000E
:1005E000C093B400CACF809190008068809390003F
:1005F000D0939900C0939800C0CF80919000806202
:1006000080939000D0939B00C0939A00B6CF8091C6
:100610009000886080939000D0939D00C0939C00D0
:10062000ACCF8091A00080688093A0008091A00052
:100630008F7B8093A000D093A900C093A8009DCF8A
:100640008091A00080628093A000D093AB00C09303
:10065000AA0093CF8091A00088608093A000D093DF
:10066000AD00C093AC0089CF809120018068809359
:100670002001D0932901C09328017FCF80912001D0
:10068000806280932001D0932B01C0932A0175CF03
:1006900080912001886080932001D0932D01C09328
:1006A0002C016BCFC038D1050CF43DCF61E03CCFBD
:1006B0003FB7F8948091540390915503A09156034D
:1006C000B091570326B5A89B05C02F3F19F001969E
:1006D000A11DB11D3FBFBA2FA92F982F8827BC019C
:1006E000CD01620F711D811D911D42E0660F771FC4
:1006F000881F991F4A95D1F708958F929F92AF92C4
:10070000BF92CF92DF92EF92FF924B015C010E9469
:1007100058036B017C010E9458036C197D098E09F6
:100720009F09683E734081059105A8F321E0821A74
:100730009108A108B10888EEC80E83E0D81EE11C1C
:10074000F11C81149104A104B10429F7FF90EF90EA
:10075000DF90CF90BF90AF909F908F900895AF9211
:10076000BF92CF92DF92EF92FF920F931F93CF939E
:10077000DF936C017B018B01040F151FEB015E0100
:10078000AE18BF08C017D10759F06991D601ED9195
:10079000FC910190F081E02DC6011995892B79F724
:1007A000C501DF91CF911F910F91FF90EF90DF90E6
:1007B000CF90BF90AF90089508951F93CF93DF938C
:1007C000C1E0C093BB02882399F1D091B800109189
:1007D000BA008091BC008A7B8093BC0060E084E119
:1007E0000E94200260E085E10E9420021092250311
:1007F000C09324031092FF0261E084E10E94200272
:1008000061E085E10E9420028091B9008E7F809393
:10081000B9008091B9008D7F8093B90088E48093FE
:10082000B80085E48093BC001093BA00D093B80060
:10083000DF91CF911F9108952091DC02260F33277D
:10084000331F21323105ECF420912503FC0190E0A7
:1008500080E0243069F082E00895A091DC022191CB
:10086000AC0144545D4FA40FB52FB11D2C930196DC
:10087000861798F38091DC02680F6093DC0280E0B9
:10088000089581E0089508958FEF9FEF08958FEF09
:100890009FEF08958091BA0290E09195819591091A
:1008A0000895CF92DF92EF92FF920F931F93CF9311
:1008B000DF937C01CB018A0120912B03222389F055
:1008C000EB016B01C40ED51ECC15DD0569F06991F5
:1008D000D701ED91FC910190F081E02DC7011995B0
:1008E000F3CF642F0E941C04C801DF91CF911F91A8
:1008F0000F91FF90EF90DF90CF900895CF93DF930B
:100900001F92CDB7DEB7698320912B032223F9F024
:1009100020914E03203258F021E030E0FC01338377
:10092000228390E080E00F90DF91CF910895809135
:100930002C03E82FF0E0E35DFC4F998190838F5FFB
:1009400080932C0380934E0381E090E0ECCF61E034
:10095000CE0101960E941C04F7CFCF92DF92EF9256
:10096000FF920F931F93CF93DF93FC01C48121E08B
:1009700020932B03C0934D0310922C0310924E032F
:100980008385682B88E593E00E947E04D0914E0316
:10099000D13208F092C00E9458036B017C01809113
:1009A0002503811165C082E08093250381E0809357
:1009B00024038FEF8093230310922203D09321030B
:1009C000ADE2B3E0E1E0F3E080E0D81385C010923F
:1009D000000380910003CC0FC82BC09300038091CB
:1009E000FF02813009F07CC01092FF020E94580380
:1009F0006B017C01809100038093BB0080912703F1
:100A000090912803A0912903B0912A03892B8A2B66
:100A10008B2B99F00E945803009127031091280313
:100A20002091290330912A036C197D098E099F09B1
:100A30000617170728073907E0F18091BC0083FDEE
:100A4000D9CF85EC8093BC000E9458036B017C01D8
:100A500080912503823009F445C0809123038F3FA4
:100A600061F180912303803241F18091230325C0FD
:100A70008091270390912803A0912903B0912A0324
:100A8000892B8A2B8B2B09F48ACF0E945803009163
:100A90002703109128032091290330912A036C1910
:100AA0007D098E099F09061717072807390708F0DF
:100AB00076CF809126030E94DD0310922C031092C2
:100AC0004E0310922B03DF91CF911F910F91FF9056
:100AD000EF90DF90CF9008959D9191938F5F75CFA8
:100AE00085EEB0CF8091270390912803A091290330
:100AF000B0912A03892B8A2B8B2B09F4A9CF0E9452
:100B00005803009127031091280320912903309165
:100B10002A036C197D098E099F09061717072807F4
:100B2000390708F095CFC5CF90E080E00895FC012B
:100B300001900020E9F73197AF01481B590BBC0128
:100B400084E693E00C94AF030F931F93CF938C0133
:100B5000C62F0E94AD046C2F6460C8010E94AD04D2
:100B60006C2F6B7FC8010E94AD0483EC90E001976D
:100B7000F1F7CF911F910F9108950F931F93CF938A
:100B8000DF938C01D62FC42F607F642B0E94A405B5
:100B900080E1D89FB00111246C2BC801DF91CF9167
:100BA0001F910F910C94A40540E061E084E693E06E
:100BB0000E94BD058BE39FE10197F1F70895CF9364
:100BC000DF9300D000D01F921F92CDB7DEB798E020
:100BD000E0E0F2E0DE01119601900D929A95E1F7C6
:100BE00090916C03961710F46FEF690F262F30E089
:100BF000220F331F41E050E04C0F5D1F240F351FC3
:100C0000F9016081680F606840E084E693E028960F
:100C10000FB6F894DEBF0FBECDBFDF91CF910C941D
:100C2000BD0541E00E94BD0581E090E0089585ED9D
:100C30008093BC008091270390912803A091290301
:100C4000B0912A030796A11DB11D23E0B695A79583
:100C5000979587952A95D1F72091BC0024FD03C074
:100C60001092250308954091270350912803609125
:100C7000290370912A03452B462B472B69F30097D4
:100C8000A105B10541F02AE22A95F1F700C00197CC
:100C9000A109B109E1CF809126030C94DD031F92D5
:100CA0000F920FB60F9211242F933F938F939F9320
:100CB000AF93BF938091500390915103A091520341
:100CC000B091530330914F0323E0230F2D3758F594
:100CD0000196A11DB11D20934F0380935003909363
:100CE0005103A0935203B093530380915403909106
:100CF0005503A0915603B09157030196A11DB11D54
:100D00008093540390935503A0935603B0935703D5
:100D1000BF91AF919F918F913F912F910F900FBEF7
:100D20000F901F90189526E8230F0296A11DB11D64
:100D3000D2CF1F920F920FB60F9211240BB60F92C3
:100D40002F933F934F935F936F937F938F939F93D3
:100D5000AF93BF93EF93FF938091B900887F803664
:100D600009F44DC008F040C0883209F4A7C028F546
:100D7000803109F49BC0C8F4882309F4F7C0883097
:100D800009F494C0FF91EF91BF91AF919F918F9122
:100D90007F916F915F914F913F912F910F900BBE7B
:100DA0000F900FBE0F901F901895883109F486C0E0
:100DB000803241F78093230314C0803409F49BC030
:100DC00040F48033B9F38833E9F68093230385EC4C
:100DD000AEC0803509F483C0883509F494C08834E6
:100DE00089F60E941706CECF883909F48AC038F5F3
:100DF000883729F050F4883611F0803719F683E0EF
:100E0000809325031092FE0255C0883809F479C0FA
:100E1000803919F0803809F0B5CF8091FE02803218
:100E200008F06FC0E091FE0281E08E0F8093FE0219
:100E30008091BB00F0E0E252FD4F80833BC0803BDD
:100E400039F0D0F4803A09F477C0883A09F09ACFA3
:100E500084E0809325031092DD021092DC02F0E022
:100E6000E0E019958091DC0281110FC081E0809350
:100E7000DC021092BC0209C0803C09F4A8CF883C77
:100E800009F4A5CF883B09F07DCFE091DD0281E038
:100E90008E0F8093DD02F0E0E454FD4F808180935B
:100EA000BB009091DD028091DC0229C0809100039B
:100EB0008093BB0085EC8093BC0064CF90912203AB
:100EC00080912103981758F5E091220381E08E0F5D
:100ED00080932203F0E0EF5FFC4F8081E9CFE09147
:100EE000220381E08E0F809322038091BB00F0E00B
:100EF000EF5FFC4F8083909122038091210398172C
:100F0000C8F285E8D8CFE091220381E08E0F80936C
:100F100022038091BB00F0E0EF5FFC4F8083809163
:100F2000240381115ECF81E08093FF0284EA8093E5
:100F3000BC001092250326CF85EC8093BC00109254
:100F400025038091FE02803230F4E091FE02F0E051
:100F5000E252FD4F10826091FE0270E08EED92E051
:100F6000F0E0E0E019951092FE020CCF10922303FE
:100F700038CFCF92DF92EF92FF920F931F93E82F1B
:100F8000F92F05C0015011092109310961F1908142
:100F900096239417B9F305C00150110921093109AD
:100FA00011F1908196239413F7CFC12CD12CE12C11
:100FB000F12C0AC08FEFC81AD80AE80AF80A0C15F3
:100FC0001D052E053F0579F080818623841791F356
:100FD0006C2D7D2D8E2D9F2D1F910F91FF90EF90E9
:100FE000DF90CF90089560E070E080E090E01F9186
:100FF0000F91FF90EF90DF90CF900895E8E5F3E038
:101000001382128288EE93E0A0E0B0E0848395839F
:10101000A683B7838CE092E091838083E4E6F3E0DB
:10102000138212828EE192E09183808387E284832F
:1010300084E1818784E0828713860895789484B55B
:10104000826084BD84B5816084BD85B5826085BDC4
:1010500085B5816085BD80916E00816080936E0052
:101060001092810080918100826080938100809144
:1010700081008160809381008091800081608093F5
:1010800080008091B10084608093B1008091B000B5
:1010900081608093B0008091910082608093910084
:1010A0008091910081608093910080919000816097
:1010B000809390008091A10082608093A100809134
:1010C000A10081608093A1008091A0008160809345
:1010D000A0008091210182608093210180912101F3
:1010E00081608093210180912001816080932001A3
:1010F00080917A00846080937A0080917A00826087
:1011000080937A0080917A00816080937A00809148
:101110007A00806880937A001092C1008091690300
:1011200088608093690314E010936C0362E370E0BD
:1011300080E090E00E947D0360916F0384E693E07D
:101140000E94AD0468EE73E080E090E00E947D03B1
:1011500060E384E693E00E94A405CBE4D6E4CE01EC
:101160000197F1F760E384E693E00E94A4052197DC
:10117000F1F760E384E693E00E94A40583E592E042
:101180000197F1F760E284E693E00E94A405609184
:101190006903606240E084E693E00E94BD0510931D
:1011A0006A0340E06CE084E693E00E94BD050E9483
:1011B000D40582E080936B0340E066E084E693E030
:1011C0000E94BD0540E062E084E693E00E94BD0518
:1011D0008BE39FE10197F1F761E080E00E94DF057A
:1011E0000E94D40560E080E00E94DF0586E292E084
:1011F0000E94970561E081E00E94DF0587E392E0AD
:101200000E94970562E083E00E94DF0588E492E097
:101210000E94970568EC70E080E090E00E947D03FA
:1012200061E08FE30E944E0261E08EE30E944E0275
:1012300062E082E00E944E0262E083E10E944E0280
:1012400062E082E10E944E0262E084E00E944E026F
:1012500062E081E10E944E020E94D40560E080E0DD
:101260000E94DF058FE492E00E94970560E088E02D
:101270000E94DF05C0E1D0E086E592E00E9497057C
:101280002197D1F766E970E080E090E00E947D034D
:101290000E94D40561E081E00E94DF0587E392E0CF
:1012A0000E94970562E083E00E94DF0588E492E0F7
:1012B0000E94970564E670E080E090E00E947D0364
:1012C00060E084E40E944E0260E085E40E944E02E9
:1012D00061E088E30E944E0261E089E30E944E02D1
:1012E00061E086E00E944E0261E08DE00E944E02C5
:1012F00061E08CE00E944E0261E088E00E944E02B4
:1013000061E087E00E944E0261E08BE00E944E02A5
:1013100061E08AE30E944E0261E08BE30E944E028C
:1013200061E08CE30E944E0261E08DE30E944E0278
:1013300061E08BE00E944E0261E08DE00E9420029D
:1013400060E08CE00E94200260E088E00E942002C1
:1013500061E087E00E94200280E990E00E948A021A
:1013600061E08AE30E94200260E08BE30E94200299
:1013700060E08CE30E94200261E08DE30E94200285
:1013800080E990E00E948A020E94D405C3E0D0E088
:1013900043E2E42EF12C55E3C52E52E0D52E6FEE3C
:1013A000A62E61E0B62E70E0872E70E0972E82E0C8
:1013B0000E94F701892B89F584E40E94F701892BAB
:1013C00061F583E10E94F701892B39F585E40E94DC
:1013D000F701892B11F561E080E00E94DF0588E5C7
:1013E00092E00E94970561E08DE00E94200260E09B
:1013F0008CE00E94200260E088E00E94200261E010
:1014000087E00E94200280E990E00E948A0263E067
:1014100070E080E090E00E947D0382E00E94F7018E
:10142000019709F017C161E080E00E94DF0589E6BD
:1014300092E00E94970561E08DE00E94200260E04A
:101440008CE00E94200261E088E00E94200260E0BF
:1014500087E00E94200280E990E00E948A0263E017
:1014600070E080E090E00E947D0383E10E94F7013C
:10147000019709F0F6C061E080E00E94DF058DE78A
:1014800092E00E94970560E08DE00E94200261E0FA
:101490008CE00E94200260E088E00E94200261E06F
:1014A00087E00E94200280E990E00E948A0263E0C7
:1014B00070E080E090E00E947D0382E10E94F701ED
:1014C0000197A1F460E08DE00E94200260E08CE0D2
:1014D0000E94200260E088E00E94200260E087E035
:1014E0000E94200290E080E00E948A0284E00E9434
:1014F000F701019709F0BCC060E08AE30E94200276
:1015000060E08BE30E94200260E08CE30E942002F6
:1015100060E08DE30E94200290E080E00E948A0259
:1015200060E08EE00E942002CE010197F1F761E0B9
:101530008EE00E942002C7010197F1F760E08EE083
:101540000E942002F6016491F5018491E82FF0E0F9
:10155000EE0FFF1FE453FE4F8591949100E412E4D7
:101560002FE030E0462F0E94B90761157105810513
:10157000910529F06F5F7F4F8F4F9F4F9F7095951B
:101580008795779567950E94190C2DEC3CEC48EEF9
:1015900051E40E946F0B0E94E10B683171058105D7
:1015A00091050CF07EC00E94D40560E080E00E94AE
:1015B000DF0581E992E00E94970561E088E30E94DF
:1015C000200260E089E30E94200260E08FE30E9435
:1015D000200261E08EE30E94200263E070E080E080
:1015E00090E00E947D0381E10E94F701019729F5B7
:1015F00061E088E30E94200260E089E30E9420020B
:1016000060E08FE30E94200261E08EE30E942002EE
:1016100081E10E94F701892BD9F760E088E30E94FD
:10162000200260E089E30E94200261E08FE30E94D3
:10163000200260E08EE30E94200264E170E080E01E
:1016400090E00E947D038114910409F4B0CE0E94C1
:101650000000ADCE84E40E94F701019709F005CFA8
:10166000E2CE85E40E94F701019709F026CF03CF6F
:1016700084E00E94F701892B09F052CF60E08AE3F1
:101680000E94200261E08BE30E94200260E08CE374
:101690000E94200261E08DE30E94200280E990E038
:1016A0003DCF683171058105910509F49CCF0E94F9
:1016B000D40560E080E00E94DF0586EA92E00E94A7
:1016C000970560E088E30E94200260E089E30E94C1
:1016D000200261E08FE30E94200260E07BCF0E9445
:1016E000830B0C946B0C0E94640C58F00E945D0CF0
:1016F00040F029F45F3F29F00C94540C51110C94E4
:101700009F0C0C945A0C0E947C0C68F39923B1F343
:10171000552391F3951B550BBB27AA276217730717
:10172000840738F09F5F5F4F220F331F441FAA1FAB
:10173000A9F335D00E2E3AF0E0E832D09150504067
:10174000E695001CCAF72BD0FE2F29D0660F771F15
:10175000881FBB1F261737074807AB07B0E809F0FB
:10176000BB0B802DBF01FF2793585F4F3AF09E3F80
:10177000510578F00C94540C0C949F0C5F3FE4F3EB
:10178000983ED4F3869577956795B795F7959F5FC3
:10179000C9F7880F911D9695879597F90895E1E00F
:1017A000660F771F881FBB1F621773078407BA076E
:1017B00020F0621B730B840BBA0BEE1F88F7E095C9
:1017C00008950E94E80B6894B1110C949F0C089541
:1017D0000E94840C88F09F5798F0B92F9927B75131
:1017E000B0F0E1F0660F771F881F991F1AF0BA95C5
:1017F000C9F714C0B13091F00E949E0CB1E0089579
:101800000C949E0C672F782F8827B85F39F0B93F6A
:10181000CCF3869577956795B395D9F73EF4909577
:101820008095709561957F4F8F4F9F4F0895E894F5
:1018300009C097FB3EF490958095709561957F4F18
:101840008F4F9F4F9923A9F0F92F96E9BB279395C6
:10185000F695879577956795B795F111F8CFFAF4D6
:10186000BB0F11F460FF1BC06F5F7F4F8F4F9F4F07
:1018700016C0882311F096E911C0772321F09EE865
:10188000872F762F05C0662371F096E8862F70E0CB
:1018900060E02AF09A95660F771F881FDAF7880FA5
:1018A0009695879597F9089597F99F6780E870E076
:1018B00060E008959FEF80EC089500240A941616C6
:1018C000170618060906089500240A94121613062E
:1018D000140605060895092E0394000C11F48823BC
:1018E00052F0BB0F40F4BF2B11F460FF04C06F5FD8
:1018F0007F4F8F4F9F4F089557FD9058440F551FAE
:1019000059F05F3F71F04795880F97FB991F61F081
:101910009F3F79F087950895121613061406551FF8
:10192000F2CF4695F1DF08C0161617061806991F64
:10193000F1CF86957105610508940895E894BB2759
:1019400066277727CB0197F90895EE0FFF1F881FB1
:0E1950008BBF0790F691E02D1994F894FFCF0D
:10195E000000400014005400000000007E045104FA
:10196E00940543044A044704440400000000110691
:10197E00AF039405DC0357656C636F6D6541757439
:10198E006F6D617469630041517561426F742043DC
:10199E006C65616E6572730053797374656D004C7E
:1019AE006F6164696E672E004E6F206F626A6563A9
:1019BE0020496E7369646573006F626A656374446F
:1019CE00657465637420496E52696768006F626A58
:1019DE0065637444657465637420496E4C65667402
:1019EE00006F626A65637444657465637420496E42
:1019FE0046726F6E74004E6F204F626A656374207C
:0A1A0E0044657465637465640000AC
:00000001FF
